{
    "_format": "hh-sol-artifact-1",
    "contractName": "Web3Mint",
    "sourceName": "contracts/Web3Mint.sol",
    "abi": [
        {
            "inputs": [],
            "stateMutability": "nonpayable",
            "type": "constructor"
        },
        {
            "anonymous": false,
            "inputs": [
                {
                    "indexed": true,
                    "internalType": "address",
                    "name": "owner",
                    "type": "address"
                },
                {
                    "indexed": true,
                    "internalType": "address",
                    "name": "approved",
                    "type": "address"
                },
                {
                    "indexed": true,
                    "internalType": "uint256",
                    "name": "tokenId",
                    "type": "uint256"
                }
            ],
            "name": "Approval",
            "type": "event"
        },
        {
            "anonymous": false,
            "inputs": [
                {
                    "indexed": true,
                    "internalType": "address",
                    "name": "owner",
                    "type": "address"
                },
                {
                    "indexed": true,
                    "internalType": "address",
                    "name": "operator",
                    "type": "address"
                },
                {
                    "indexed": false,
                    "internalType": "bool",
                    "name": "approved",
                    "type": "bool"
                }
            ],
            "name": "ApprovalForAll",
            "type": "event"
        },
        {
            "anonymous": false,
            "inputs": [
                {
                    "indexed": true,
                    "internalType": "address",
                    "name": "from",
                    "type": "address"
                },
                {
                    "indexed": true,
                    "internalType": "address",
                    "name": "to",
                    "type": "address"
                },
                {
                    "indexed": true,
                    "internalType": "uint256",
                    "name": "tokenId",
                    "type": "uint256"
                }
            ],
            "name": "Transfer",
            "type": "event"
        },
        {
            "inputs": [
                {
                    "internalType": "address",
                    "name": "to",
                    "type": "address"
                },
                {
                    "internalType": "uint256",
                    "name": "tokenId",
                    "type": "uint256"
                }
            ],
            "name": "approve",
            "outputs": [],
            "stateMutability": "nonpayable",
            "type": "function"
        },
        {
            "inputs": [
                {
                    "internalType": "address",
                    "name": "owner",
                    "type": "address"
                }
            ],
            "name": "balanceOf",
            "outputs": [
                {
                    "internalType": "uint256",
                    "name": "",
                    "type": "uint256"
                }
            ],
            "stateMutability": "view",
            "type": "function"
        },
        {
            "inputs": [
                {
                    "internalType": "uint256",
                    "name": "tokenId",
                    "type": "uint256"
                }
            ],
            "name": "getApproved",
            "outputs": [
                {
                    "internalType": "address",
                    "name": "",
                    "type": "address"
                }
            ],
            "stateMutability": "view",
            "type": "function"
        },
        {
            "inputs": [
                {
                    "internalType": "address",
                    "name": "owner",
                    "type": "address"
                },
                {
                    "internalType": "address",
                    "name": "operator",
                    "type": "address"
                }
            ],
            "name": "isApprovedForAll",
            "outputs": [
                {
                    "internalType": "bool",
                    "name": "",
                    "type": "bool"
                }
            ],
            "stateMutability": "view",
            "type": "function"
        },
        {
            "inputs": [
                {
                    "internalType": "string",
                    "name": "name",
                    "type": "string"
                },
                {
                    "internalType": "string",
                    "name": "imageURI",
                    "type": "string"
                }
            ],
            "name": "mintIpfsNFT",
            "outputs": [],
            "stateMutability": "nonpayable",
            "type": "function"
        },
        {
            "inputs": [],
            "name": "name",
            "outputs": [
                {
                    "internalType": "string",
                    "name": "",
                    "type": "string"
                }
            ],
            "stateMutability": "view",
            "type": "function"
        },
        {
            "inputs": [
                {
                    "internalType": "uint256",
                    "name": "tokenId",
                    "type": "uint256"
                }
            ],
            "name": "ownerOf",
            "outputs": [
                {
                    "internalType": "address",
                    "name": "",
                    "type": "address"
                }
            ],
            "stateMutability": "view",
            "type": "function"
        },
        {
            "inputs": [
                {
                    "internalType": "address",
                    "name": "from",
                    "type": "address"
                },
                {
                    "internalType": "address",
                    "name": "to",
                    "type": "address"
                },
                {
                    "internalType": "uint256",
                    "name": "tokenId",
                    "type": "uint256"
                }
            ],
            "name": "safeTransferFrom",
            "outputs": [],
            "stateMutability": "nonpayable",
            "type": "function"
        },
        {
            "inputs": [
                {
                    "internalType": "address",
                    "name": "from",
                    "type": "address"
                },
                {
                    "internalType": "address",
                    "name": "to",
                    "type": "address"
                },
                {
                    "internalType": "uint256",
                    "name": "tokenId",
                    "type": "uint256"
                },
                {
                    "internalType": "bytes",
                    "name": "_data",
                    "type": "bytes"
                }
            ],
            "name": "safeTransferFrom",
            "outputs": [],
            "stateMutability": "nonpayable",
            "type": "function"
        },
        {
            "inputs": [
                {
                    "internalType": "address",
                    "name": "operator",
                    "type": "address"
                },
                {
                    "internalType": "bool",
                    "name": "approved",
                    "type": "bool"
                }
            ],
            "name": "setApprovalForAll",
            "outputs": [],
            "stateMutability": "nonpayable",
            "type": "function"
        },
        {
            "inputs": [
                {
                    "internalType": "bytes4",
                    "name": "interfaceId",
                    "type": "bytes4"
                }
            ],
            "name": "supportsInterface",
            "outputs": [
                {
                    "internalType": "bool",
                    "name": "",
                    "type": "bool"
                }
            ],
            "stateMutability": "view",
            "type": "function"
        },
        {
            "inputs": [],
            "name": "symbol",
            "outputs": [
                {
                    "internalType": "string",
                    "name": "",
                    "type": "string"
                }
            ],
            "stateMutability": "view",
            "type": "function"
        },
        {
            "inputs": [
                {
                    "internalType": "uint256",
                    "name": "_tokenId",
                    "type": "uint256"
                }
            ],
            "name": "tokenURI",
            "outputs": [
                {
                    "internalType": "string",
                    "name": "",
                    "type": "string"
                }
            ],
            "stateMutability": "view",
            "type": "function"
        },
        {
            "inputs": [
                {
                    "internalType": "address",
                    "name": "from",
                    "type": "address"
                },
                {
                    "internalType": "address",
                    "name": "to",
                    "type": "address"
                },
                {
                    "internalType": "uint256",
                    "name": "tokenId",
                    "type": "uint256"
                }
            ],
            "name": "transferFrom",
            "outputs": [],
            "stateMutability": "nonpayable",
            "type": "function"
        }
    ],
    "bytecode": "0x60806040523480156200001157600080fd5b506040518060400160405280600381526020017f4e465400000000000000000000000000000000000000000000000000000000008152506040518060400160405280600381526020017f6e66740000000000000000000000000000000000000000000000000000000000815250816000908051906020019062000096929190620001cf565b508060019080519060200190620000af929190620001cf565b505050620000fd6040518060400160405280601881526020017f54686973206973206d79204e465420636f6e74726163742e00000000000000008152506200010360201b62000b4e1760201c565b620003ac565b620001a3816040516024016200011a9190620002c0565b6040516020818303038152906040527f41304fac000000000000000000000000000000000000000000000000000000007bffffffffffffffffffffffffffffffffffffffffffffffffffffffff19166020820180517bffffffffffffffffffffffffffffffffffffffffffffffffffffffff8381831617835250505050620001a660201b60201c565b50565b60008151905060006a636f6e736f6c652e6c6f679050602083016000808483855afa5050505050565b828054620001dd9062000336565b90600052602060002090601f0160209004810192826200020157600085556200024d565b82601f106200021c57805160ff19168380011785556200024d565b828001600101855582156200024d579182015b828111156200024c5782518255916020019190600101906200022f565b5b5090506200025c919062000260565b5090565b5b808211156200027b57600081600090555060010162000261565b5090565b60006200028c82620002e4565b620002988185620002ef565b9350620002aa81856020860162000300565b620002b5816200039b565b840191505092915050565b60006020820190508181036000830152620002dc81846200027f565b905092915050565b600081519050919050565b600082825260208201905092915050565b60005b838110156200032057808201518184015260208101905062000303565b8381111562000330576000848401525b50505050565b600060028204905060018216806200034f57607f821691505b602082108114156200036657620003656200036c565b5b50919050565b7f4e487b7100000000000000000000000000000000000000000000000000000000600052602260045260246000fd5b6000601f19601f8301169050919050565b61301480620003bc6000396000f3fe608060405234801561001057600080fd5b50600436106100ea5760003560e01c806370a082311161008c578063b88d4fde11610066578063b88d4fde1461025b578063c87b56dd14610277578063e985e9c5146102a7578063eb00195d146102d7576100ea565b806370a08231146101f157806395d89b4114610221578063a22cb4651461023f576100ea565b8063095ea7b3116100c8578063095ea7b31461016d57806323b872dd1461018957806342842e0e146101a55780636352211e146101c1576100ea565b806301ffc9a7146100ef57806306fdde031461011f578063081812fc1461013d575b600080fd5b61010960048036038101906101049190611e7d565b6102f3565b604051610116919061240f565b60405180910390f35b6101276103d5565b604051610134919061242a565b60405180910390f35b61015760048036038101906101529190611f3b565b610467565b60405161016491906123a8565b60405180910390f35b61018760048036038101906101829190611e41565b6104ec565b005b6101a3600480360381019061019e9190611d3b565b610604565b005b6101bf60048036038101906101ba9190611d3b565b610664565b005b6101db60048036038101906101d69190611f3b565b610684565b6040516101e891906123a8565b60405180910390f35b61020b60048036038101906102069190611cd6565b610736565b604051610218919061262a565b60405180910390f35b6102296107ee565b604051610236919061242a565b60405180910390f35b61025960048036038101906102549190611e05565b610880565b005b61027560048036038101906102709190611d8a565b610896565b005b610291600480360381019061028c9190611f3b565b6108f8565b60405161029e919061242a565b60405180910390f35b6102c160048036038101906102bc9190611cff565b6109f4565b6040516102ce919061240f565b60405180910390f35b6102f160048036038101906102ec9190611ecf565b610a88565b005b60007f80ac58cd000000000000000000000000000000000000000000000000000000007bffffffffffffffffffffffffffffffffffffffffffffffffffffffff1916827bffffffffffffffffffffffffffffffffffffffffffffffffffffffff191614806103be57507f5b5e139f000000000000000000000000000000000000000000000000000000007bffffffffffffffffffffffffffffffffffffffffffffffffffffffff1916827bffffffffffffffffffffffffffffffffffffffffffffffffffffffff1916145b806103ce57506103cd82610be7565b5b9050919050565b6060600080546103e4906128ef565b80601f0160208091040260200160405190810160405280929190818152602001828054610410906128ef565b801561045d5780601f106104325761010080835404028352916020019161045d565b820191906000526020600020905b81548152906001019060200180831161044057829003601f168201915b5050505050905090565b600061047282610c51565b6104b1576040517f08c379a00000000000000000000000000000000000000000000000000000000081526004016104a8906125ca565b60405180910390fd5b6004600083815260200190815260200160002060009054906101000a900473ffffffffffffffffffffffffffffffffffffffff169050919050565b60006104f782610684565b90508073ffffffffffffffffffffffffffffffffffffffff168373ffffffffffffffffffffffffffffffffffffffff161415610568576040517f08c379a000000000000000000000000000000000000000000000000000000000815260040161055f906125ea565b60405180910390fd5b8073ffffffffffffffffffffffffffffffffffffffff16610587610cbd565b73ffffffffffffffffffffffffffffffffffffffff1614806105b657506105b5816105b0610cbd565b6109f4565b5b6105f5576040517f08c379a00000000000000000000000000000000000000000000000000000000081526004016105ec9061254a565b60405180910390fd5b6105ff8383610cc5565b505050565b61061561060f610cbd565b82610d7e565b610654576040517f08c379a000000000000000000000000000000000000000000000000000000000815260040161064b9061260a565b60405180910390fd5b61065f838383610e5c565b505050565b61067f83838360405180602001604052806000815250610896565b505050565b6000806002600084815260200190815260200160002060009054906101000a900473ffffffffffffffffffffffffffffffffffffffff169050600073ffffffffffffffffffffffffffffffffffffffff168173ffffffffffffffffffffffffffffffffffffffff16141561072d576040517f08c379a00000000000000000000000000000000000000000000000000000000081526004016107249061258a565b60405180910390fd5b80915050919050565b60008073ffffffffffffffffffffffffffffffffffffffff168273ffffffffffffffffffffffffffffffffffffffff1614156107a7576040517f08c379a000000000000000000000000000000000000000000000000000000000815260040161079e9061256a565b60405180910390fd5b600360008373ffffffffffffffffffffffffffffffffffffffff1673ffffffffffffffffffffffffffffffffffffffff168152602001908152602001600020549050919050565b6060600180546107fd906128ef565b80601f0160208091040260200160405190810160405280929190818152602001828054610829906128ef565b80156108765780601f1061084b57610100808354040283529160200191610876565b820191906000526020600020905b81548152906001019060200180831161085957829003601f168201915b5050505050905090565b61089261088b610cbd565b83836110c3565b5050565b6108a76108a1610cbd565b83610d7e565b6108e6576040517f08c379a00000000000000000000000000000000000000000000000000000000081526004016108dd9061260a565b60405180910390fd5b6108f284848484611230565b50505050565b606060006109c460068481548110610939577f4e487b7100000000000000000000000000000000000000000000000000000000600052603260045260246000fd5b90600052602060002090600202016000016109538561128c565b6006868154811061098d577f4e487b7100000000000000000000000000000000000000000000000000000000600052603260045260246000fd5b90600052602060002090600202016001016040516020016109b093929190612329565b604051602081830303815290604052611439565b90506000816040516020016109d99190612386565b60405160208183030381529060405290508092505050919050565b6000600560008473ffffffffffffffffffffffffffffffffffffffff1673ffffffffffffffffffffffffffffffffffffffff16815260200190815260200160002060008373ffffffffffffffffffffffffffffffffffffffff1673ffffffffffffffffffffffffffffffffffffffff16815260200190815260200160002060009054906101000a900460ff16905092915050565b6000610a9460076115f7565b9050610aa03382611605565b600660405180604001604052808581526020018481525090806001815401808255809150506001900390600052602060002090600202016000909190919091506000820151816000019080519060200190610afc929190611afa565b506020820151816001019080519060200190610b19929190611afa565b505050610b3f604051806060016040528060258152602001612f7a602591398233611623565b610b4960076116c2565b505050565b610be481604051602401610b62919061242a565b6040516020818303038152906040527f41304fac000000000000000000000000000000000000000000000000000000007bffffffffffffffffffffffffffffffffffffffffffffffffffffffff19166020820180517bffffffffffffffffffffffffffffffffffffffffffffffffffffffff83818316178352505050506116d8565b50565b60007f01ffc9a7000000000000000000000000000000000000000000000000000000007bffffffffffffffffffffffffffffffffffffffffffffffffffffffff1916827bffffffffffffffffffffffffffffffffffffffffffffffffffffffff1916149050919050565b60008073ffffffffffffffffffffffffffffffffffffffff166002600084815260200190815260200160002060009054906101000a900473ffffffffffffffffffffffffffffffffffffffff1673ffffffffffffffffffffffffffffffffffffffff1614159050919050565b600033905090565b816004600083815260200190815260200160002060006101000a81548173ffffffffffffffffffffffffffffffffffffffff021916908373ffffffffffffffffffffffffffffffffffffffff160217905550808273ffffffffffffffffffffffffffffffffffffffff16610d3883610684565b73ffffffffffffffffffffffffffffffffffffffff167f8c5be1e5ebec7d5bd14f71427d1e84f3dd0314c0f7b2291e5b200ac8c7c3b92560405160405180910390a45050565b6000610d8982610c51565b610dc8576040517f08c379a0000000000000000000000000000000000000000000000000000000008152600401610dbf9061252a565b60405180910390fd5b6000610dd383610684565b90508073ffffffffffffffffffffffffffffffffffffffff168473ffffffffffffffffffffffffffffffffffffffff161480610e155750610e1481856109f4565b5b80610e5357508373ffffffffffffffffffffffffffffffffffffffff16610e3b84610467565b73ffffffffffffffffffffffffffffffffffffffff16145b91505092915050565b8273ffffffffffffffffffffffffffffffffffffffff16610e7c82610684565b73ffffffffffffffffffffffffffffffffffffffff1614610ed2576040517f08c379a0000000000000000000000000000000000000000000000000000000008152600401610ec9906124aa565b60405180910390fd5b600073ffffffffffffffffffffffffffffffffffffffff168273ffffffffffffffffffffffffffffffffffffffff161415610f42576040517f08c379a0000000000000000000000000000000000000000000000000000000008152600401610f39906124ea565b60405180910390fd5b610f4d838383611701565b610f58600082610cc5565b6001600360008573ffffffffffffffffffffffffffffffffffffffff1673ffffffffffffffffffffffffffffffffffffffff1681526020019081526020016000206000828254610fa89190612805565b925050819055506001600360008473ffffffffffffffffffffffffffffffffffffffff1673ffffffffffffffffffffffffffffffffffffffff1681526020019081526020016000206000828254610fff9190612724565b92505081905550816002600083815260200190815260200160002060006101000a81548173ffffffffffffffffffffffffffffffffffffffff021916908373ffffffffffffffffffffffffffffffffffffffff160217905550808273ffffffffffffffffffffffffffffffffffffffff168473ffffffffffffffffffffffffffffffffffffffff167fddf252ad1be2c89b69c2b068fc378daa952ba7f163c4a11628f55a4df523b3ef60405160405180910390a46110be838383611706565b505050565b8173ffffffffffffffffffffffffffffffffffffffff168373ffffffffffffffffffffffffffffffffffffffff161415611132576040517f08c379a00000000000000000000000000000000000000000000000000000000081526004016111299061250a565b60405180910390fd5b80600560008573ffffffffffffffffffffffffffffffffffffffff1673ffffffffffffffffffffffffffffffffffffffff16815260200190815260200160002060008473ffffffffffffffffffffffffffffffffffffffff1673ffffffffffffffffffffffffffffffffffffffff16815260200190815260200160002060006101000a81548160ff0219169083151502179055508173ffffffffffffffffffffffffffffffffffffffff168373ffffffffffffffffffffffffffffffffffffffff167f17307eab39ab6107e8899845ad3d59bd9653f200f220920489ca2b5937696c3183604051611223919061240f565b60405180910390a3505050565b61123b848484610e5c565b6112478484848461170b565b611286576040517f08c379a000000000000000000000000000000000000000000000000000000000815260040161127d9061248a565b60405180910390fd5b50505050565b606060008214156112d4576040518060400160405280600181526020017f30000000000000000000000000000000000000000000000000000000000000008152509050611434565b600082905060005b600082146113065780806112ef90612952565b915050600a826112ff919061277a565b91506112dc565b60008167ffffffffffffffff811115611348577f4e487b7100000000000000000000000000000000000000000000000000000000600052604160045260246000fd5b6040519080825280601f01601f19166020018201604052801561137a5781602001600182028036833780820191505090505b5090505b6000851461142d576001826113939190612805565b9150600a856113a2919061299b565b60306113ae9190612724565b60f81b8183815181106113ea577f4e487b7100000000000000000000000000000000000000000000000000000000600052603260045260246000fd5b60200101907effffffffffffffffffffffffffffffffffffffffffffffffffffffffffffff1916908160001a905350600a85611426919061277a565b945061137e565b8093505050505b919050565b6060600082519050600081141561146257604051806020016040528060008152509150506115f2565b600060036002836114739190612724565b61147d919061277a565b600461148991906127ab565b9050600060208261149a9190612724565b67ffffffffffffffff8111156114d9577f4e487b7100000000000000000000000000000000000000000000000000000000600052604160045260246000fd5b6040519080825280601f01601f19166020018201604052801561150b5781602001600182028036833780820191505090505b5090506000604051806060016040528060408152602001612f9f604091399050600181016020830160005b868110156115af5760038101905062ffffff818a015116603f8160121c168401518060081b905060ff603f83600c1c1686015116810190508060081b905060ff603f8360061c1686015116810190508060081b905060ff603f831686015116810190508060e01b90508084526004840193505050611536565b5060038606600181146115c957600281146115d9576115e4565b613d3d60f01b60028303526115e4565b603d60f81b60018303525b508484525050819450505050505b919050565b600081600001549050919050565b61161f8282604051806020016040528060008152506118a2565b5050565b6116bd83838360405160240161163b9392919061244c565b6040516020818303038152906040527fe3849f79000000000000000000000000000000000000000000000000000000007bffffffffffffffffffffffffffffffffffffffffffffffffffffffff19166020820180517bffffffffffffffffffffffffffffffffffffffffffffffffffffffff83818316178352505050506116d8565b505050565b6001816000016000828254019250508190555050565b60008151905060006a636f6e736f6c652e6c6f679050602083016000808483855afa5050505050565b505050565b505050565b600061172c8473ffffffffffffffffffffffffffffffffffffffff166118fd565b15611895578373ffffffffffffffffffffffffffffffffffffffff1663150b7a02611755610cbd565b8786866040518563ffffffff1660e01b815260040161177794939291906123c3565b602060405180830381600087803b15801561179157600080fd5b505af19250505080156117c257506040513d601f19601f820116820180604052508101906117bf9190611ea6565b60015b611845573d80600081146117f2576040519150601f19603f3d011682016040523d82523d6000602084013e6117f7565b606091505b5060008151141561183d576040517f08c379a00000000000000000000000000000000000000000000000000000000081526004016118349061248a565b60405180910390fd5b805181602001fd5b63150b7a0260e01b7bffffffffffffffffffffffffffffffffffffffffffffffffffffffff1916817bffffffffffffffffffffffffffffffffffffffffffffffffffffffff19161491505061189a565b600190505b949350505050565b6118ac8383611920565b6118b9600084848461170b565b6118f8576040517f08c379a00000000000000000000000000000000000000000000000000000000081526004016118ef9061248a565b60405180910390fd5b505050565b6000808273ffffffffffffffffffffffffffffffffffffffff163b119050919050565b600073ffffffffffffffffffffffffffffffffffffffff168273ffffffffffffffffffffffffffffffffffffffff161415611990576040517f08c379a0000000000000000000000000000000000000000000000000000000008152600401611987906125aa565b60405180910390fd5b61199981610c51565b156119d9576040517f08c379a00000000000000000000000000000000000000000000000000000000081526004016119d0906124ca565b60405180910390fd5b6119e560008383611701565b6001600360008473ffffffffffffffffffffffffffffffffffffffff1673ffffffffffffffffffffffffffffffffffffffff1681526020019081526020016000206000828254611a359190612724565b92505081905550816002600083815260200190815260200160002060006101000a81548173ffffffffffffffffffffffffffffffffffffffff021916908373ffffffffffffffffffffffffffffffffffffffff160217905550808273ffffffffffffffffffffffffffffffffffffffff16600073ffffffffffffffffffffffffffffffffffffffff167fddf252ad1be2c89b69c2b068fc378daa952ba7f163c4a11628f55a4df523b3ef60405160405180910390a4611af660008383611706565b5050565b828054611b06906128ef565b90600052602060002090601f016020900481019282611b285760008555611b6f565b82601f10611b4157805160ff1916838001178555611b6f565b82800160010185558215611b6f579182015b82811115611b6e578251825591602001919060010190611b53565b5b509050611b7c9190611b80565b5090565b5b80821115611b99576000816000905550600101611b81565b5090565b6000611bb0611bab8461266a565b612645565b905082815260208101848484011115611bc857600080fd5b611bd38482856128ad565b509392505050565b6000611bee611be98461269b565b612645565b905082815260208101848484011115611c0657600080fd5b611c118482856128ad565b509392505050565b600081359050611c2881612f1d565b92915050565b600081359050611c3d81612f34565b92915050565b600081359050611c5281612f4b565b92915050565b600081519050611c6781612f4b565b92915050565b600082601f830112611c7e57600080fd5b8135611c8e848260208601611b9d565b91505092915050565b600082601f830112611ca857600080fd5b8135611cb8848260208601611bdb565b91505092915050565b600081359050611cd081612f62565b92915050565b600060208284031215611ce857600080fd5b6000611cf684828501611c19565b91505092915050565b60008060408385031215611d1257600080fd5b6000611d2085828601611c19565b9250506020611d3185828601611c19565b9150509250929050565b600080600060608486031215611d5057600080fd5b6000611d5e86828701611c19565b9350506020611d6f86828701611c19565b9250506040611d8086828701611cc1565b9150509250925092565b60008060008060808587031215611da057600080fd5b6000611dae87828801611c19565b9450506020611dbf87828801611c19565b9350506040611dd087828801611cc1565b925050606085013567ffffffffffffffff811115611ded57600080fd5b611df987828801611c6d565b91505092959194509250565b60008060408385031215611e1857600080fd5b6000611e2685828601611c19565b9250506020611e3785828601611c2e565b9150509250929050565b60008060408385031215611e5457600080fd5b6000611e6285828601611c19565b9250506020611e7385828601611cc1565b9150509250929050565b600060208284031215611e8f57600080fd5b6000611e9d84828501611c43565b91505092915050565b600060208284031215611eb857600080fd5b6000611ec684828501611c58565b91505092915050565b60008060408385031215611ee257600080fd5b600083013567ffffffffffffffff811115611efc57600080fd5b611f0885828601611c97565b925050602083013567ffffffffffffffff811115611f2557600080fd5b611f3185828601611c97565b9150509250929050565b600060208284031215611f4d57600080fd5b6000611f5b84828501611cc1565b91505092915050565b611f6d81612839565b82525050565b611f7c8161284b565b82525050565b6000611f8d826126e1565b611f9781856126f7565b9350611fa78185602086016128bc565b611fb081612a88565b840191505092915050565b6000611fc6826126ec565b611fd08185612708565b9350611fe08185602086016128bc565b611fe981612a88565b840191505092915050565b6000611fff826126ec565b6120098185612719565b93506120198185602086016128bc565b80840191505092915050565b60008154612032816128ef565b61203c8186612719565b9450600182166000811461205757600181146120685761209b565b60ff1983168652818601935061209b565b612071856126cc565b60005b8381101561209357815481890152600182019150602081019050612074565b838801955050505b50505092915050565b60006120b1600b83612719565b91506120bc82612a99565b600b82019050919050565b60006120d4603283612708565b91506120df82612ac2565b604082019050919050565b60006120f7602583612708565b915061210282612b11565b604082019050919050565b600061211a601c83612708565b915061212582612b60565b602082019050919050565b600061213d603283612719565b915061214882612b89565b603282019050919050565b6000612160602483612708565b915061216b82612bd8565b604082019050919050565b6000612183601983612708565b915061218e82612c27565b602082019050919050565b60006121a6602c83612708565b91506121b182612c50565b604082019050919050565b60006121c9603883612708565b91506121d482612c9f565b604082019050919050565b60006121ec602a83612708565b91506121f782612cee565b604082019050919050565b600061220f602983612708565b915061221a82612d3d565b604082019050919050565b6000612232600283612719565b915061223d82612d8c565b600282019050919050565b6000612255602083612708565b915061226082612db5565b602082019050919050565b6000612278602c83612708565b915061228382612dde565b604082019050919050565b600061229b600a83612719565b91506122a682612e2d565b600a82019050919050565b60006122be602183612708565b91506122c982612e56565b604082019050919050565b60006122e1601d83612719565b91506122ec82612ea5565b601d82019050919050565b6000612304603183612708565b915061230f82612ece565b604082019050919050565b612323816128a3565b82525050565b60006123348261228e565b91506123408286612025565b915061234b826120a4565b91506123578285611ff4565b915061236282612130565b915061236e8284612025565b915061237982612225565b9150819050949350505050565b6000612391826122d4565b915061239d8284611ff4565b915081905092915050565b60006020820190506123bd6000830184611f64565b92915050565b60006080820190506123d86000830187611f64565b6123e56020830186611f64565b6123f2604083018561231a565b81810360608301526124048184611f82565b905095945050505050565b60006020820190506124246000830184611f73565b92915050565b600060208201905081810360008301526124448184611fbb565b905092915050565b600060608201905081810360008301526124668186611fbb565b9050612475602083018561231a565b6124826040830184611f64565b949350505050565b600060208201905081810360008301526124a3816120c7565b9050919050565b600060208201905081810360008301526124c3816120ea565b9050919050565b600060208201905081810360008301526124e38161210d565b9050919050565b6000602082019050818103600083015261250381612153565b9050919050565b6000602082019050818103600083015261252381612176565b9050919050565b6000602082019050818103600083015261254381612199565b9050919050565b60006020820190508181036000830152612563816121bc565b9050919050565b60006020820190508181036000830152612583816121df565b9050919050565b600060208201905081810360008301526125a381612202565b9050919050565b600060208201905081810360008301526125c381612248565b9050919050565b600060208201905081810360008301526125e38161226b565b9050919050565b60006020820190508181036000830152612603816122b1565b9050919050565b60006020820190508181036000830152612623816122f7565b9050919050565b600060208201905061263f600083018461231a565b92915050565b600061264f612660565b905061265b8282612921565b919050565b6000604051905090565b600067ffffffffffffffff82111561268557612684612a59565b5b61268e82612a88565b9050602081019050919050565b600067ffffffffffffffff8211156126b6576126b5612a59565b5b6126bf82612a88565b9050602081019050919050565b60008190508160005260206000209050919050565b600081519050919050565b600081519050919050565b600082825260208201905092915050565b600082825260208201905092915050565b600081905092915050565b600061272f826128a3565b915061273a836128a3565b9250827fffffffffffffffffffffffffffffffffffffffffffffffffffffffffffffffff0382111561276f5761276e6129cc565b5b828201905092915050565b6000612785826128a3565b9150612790836128a3565b9250826127a05761279f6129fb565b5b828204905092915050565b60006127b6826128a3565b91506127c1836128a3565b9250817fffffffffffffffffffffffffffffffffffffffffffffffffffffffffffffffff04831182151516156127fa576127f96129cc565b5b828202905092915050565b6000612810826128a3565b915061281b836128a3565b92508282101561282e5761282d6129cc565b5b828203905092915050565b600061284482612883565b9050919050565b60008115159050919050565b60007fffffffff0000000000000000000000000000000000000000000000000000000082169050919050565b600073ffffffffffffffffffffffffffffffffffffffff82169050919050565b6000819050919050565b82818337600083830152505050565b60005b838110156128da5780820151818401526020810190506128bf565b838111156128e9576000848401525b50505050565b6000600282049050600182168061290757607f821691505b6020821081141561291b5761291a612a2a565b5b50919050565b61292a82612a88565b810181811067ffffffffffffffff8211171561294957612948612a59565b5b80604052505050565b600061295d826128a3565b91507fffffffffffffffffffffffffffffffffffffffffffffffffffffffffffffffff8214156129905761298f6129cc565b5b600182019050919050565b60006129a6826128a3565b91506129b1836128a3565b9250826129c1576129c06129fb565b5b828206905092915050565b7f4e487b7100000000000000000000000000000000000000000000000000000000600052601160045260246000fd5b7f4e487b7100000000000000000000000000000000000000000000000000000000600052601260045260246000fd5b7f4e487b7100000000000000000000000000000000000000000000000000000000600052602260045260246000fd5b7f4e487b7100000000000000000000000000000000000000000000000000000000600052604160045260246000fd5b6000601f19601f8301169050919050565b7f202d2d204e465420233a20000000000000000000000000000000000000000000600082015250565b7f4552433732313a207472616e7366657220746f206e6f6e20455243373231526560008201527f63656976657220696d706c656d656e7465720000000000000000000000000000602082015250565b7f4552433732313a207472616e736665722066726f6d20696e636f72726563742060008201527f6f776e6572000000000000000000000000000000000000000000000000000000602082015250565b7f4552433732313a20746f6b656e20616c7265616479206d696e74656400000000600082015250565b7f222c20226465736372697074696f6e223a2022416e2065706963204e4654222c60008201527f2022696d616765223a2022697066733a2f2f0000000000000000000000000000602082015250565b7f4552433732313a207472616e7366657220746f20746865207a65726f2061646460008201527f7265737300000000000000000000000000000000000000000000000000000000602082015250565b7f4552433732313a20617070726f766520746f2063616c6c657200000000000000600082015250565b7f4552433732313a206f70657261746f7220717565727920666f72206e6f6e657860008201527f697374656e7420746f6b656e0000000000000000000000000000000000000000602082015250565b7f4552433732313a20617070726f76652063616c6c6572206973206e6f74206f7760008201527f6e6572206e6f7220617070726f76656420666f7220616c6c0000000000000000602082015250565b7f4552433732313a2062616c616e636520717565727920666f7220746865207a6560008201527f726f206164647265737300000000000000000000000000000000000000000000602082015250565b7f4552433732313a206f776e657220717565727920666f72206e6f6e657869737460008201527f656e7420746f6b656e0000000000000000000000000000000000000000000000602082015250565b7f227d000000000000000000000000000000000000000000000000000000000000600082015250565b7f4552433732313a206d696e7420746f20746865207a65726f2061646472657373600082015250565b7f4552433732313a20617070726f76656420717565727920666f72206e6f6e657860008201527f697374656e7420746f6b656e0000000000000000000000000000000000000000602082015250565b7f7b226e616d65223a202200000000000000000000000000000000000000000000600082015250565b7f4552433732313a20617070726f76616c20746f2063757272656e74206f776e6560008201527f7200000000000000000000000000000000000000000000000000000000000000602082015250565b7f646174613a6170706c69636174696f6e2f6a736f6e3b6261736536342c000000600082015250565b7f4552433732313a207472616e736665722063616c6c6572206973206e6f74206f60008201527f776e6572206e6f7220617070726f766564000000000000000000000000000000602082015250565b612f2681612839565b8114612f3157600080fd5b50565b612f3d8161284b565b8114612f4857600080fd5b50565b612f5481612857565b8114612f5f57600080fd5b50565b612f6b816128a3565b8114612f7657600080fd5b5056fe416e204e465420772f20494420257320686173206265656e206d696e74656420746f2025734142434445464748494a4b4c4d4e4f505152535455565758595a6162636465666768696a6b6c6d6e6f707172737475767778797a303132333435363738392b2fa26469706673582212205f6cc143e87a651585d263cd04d5815acd849e0f73f79154692eeb89ed797e6d64736f6c63430008040033",
    "linkReferences": {},
    "deployedLinkReferences": {}
}